:02000000016E8F
:10002000758780759852758920758BFD758DFDD209
:100030008E223098FDC298E599223099FDC299F53B
:100040009922C0E0E4936005113AA380F7D0E02242
:10005000C3940A40022407243A113A22C0E0C0E0C7
:10006000C4540F1150D0E0540F1150D0E022C2D030
:1000700075817F75A0007580007590FFD2B7D2B5ED
:10008000D2B6112090028711421132B43A04510DB8
:1000900080F7B4440431CB80F0B4490411AE80E958
:1000A000B44504314E80E29002CA114280DB9002D6
:1000B000A9114275A055758055C2B7C2B57590AAF1
:1000C000D2B5D2B775A02A7580AAC2B7C2B575904D
:1000D00055D2B5D2B775A055758055C2B7C2B575A2
:1000E0009090D2B5D2B700007590FF75A0007580D2
:1000F00000C2B7C2B600E590D2B6D2B7115C758027
:1001000001C2B7C2B600E590D2B6D2B7115C00000A
:1001100090029F114275A055758055C2B7C2B57542
:1001200090AAD2B5D2B775A02A7580AAC2B7C2B5B7
:10013000759055D2B5D2B775A055758055C2B7C266
:10014000B57590F0D2B5D2B79002C3114222900299
:10015000B5114275A055758055C2B7C2B57590AA44
:10016000D2B5D2B775A02A7580AAC2B7C2B57590AC
:1001700055D2B5D2B775A055758055C2B7C2B57501
:100180009080D2B5D2B775A055758055C2B7C2B5AB
:100190007590AAD2B5D2B775A02A7580AAC2B7C287
:1001A000B5759055D2B5D2B775A055758055C2B703
:1001B000C2B5759010D2B5D2B7780279FF7AFFDA5E
:1001C000FED9FCD8FA9002C31142229002A2114239
:1001D0007E007F00EF540FB4000F90029F1142EE9B
:1001E000115CEF115C743A113A7420113A8EA08FB1
:1001F000807590FFC2B7C2B6E590D2B6D2B7115C97
:100200000FBF00D00EBE00CC749F114222517A6005
:1002100045FF517AFE517AFD517A703AC2B7517A50
:1002200075A055758055C2B57590AAD2B575A02A2E
:100230007580AAC2B5759055D2B575A05575805513
:10024000C2B57590A0D2B58EA08D80C2B5F590D202
:10025000B50DDFCAD2B71132B40DFB22C007E608D4
:10026000C3944150022407240AC4FFE608C3944102
:1002700050022407240A2FD007221132F520113210
:10028000F5217820515C2253535433395346303191
:10029000302050726F6772616D6D65720D0A000DCE
:1002A0000A0044756D700D0A004964656E746966D4
:1002B000793A0D0A00436869702045726173653AA6
:1002C0000D0A00646F6E650D0A00696E76616C69D7
:0A02D0006420656E7472790D0A0057
:00000001FF
